{
  "_format": "hh-sol-artifact-1",
  "contractName": "EcommercePrivacy",
  "sourceName": "contracts/EcommercePrivacy.sol",
  "abi": [
    {
      "inputs": [],
      "stateMutability": "nonpayable",
      "type": "constructor"
    },
    {
      "inputs": [],
      "name": "AccessControlBadConfirmation",
      "type": "error"
    },
    {
      "inputs": [
        {
          "internalType": "address",
          "name": "account",
          "type": "address"
        },
        {
          "internalType": "bytes32",
          "name": "neededRole",
          "type": "bytes32"
        }
      ],
      "name": "AccessControlUnauthorizedAccount",
      "type": "error"
    },
    {
      "inputs": [],
      "name": "ECDSAInvalidSignature",
      "type": "error"
    },
    {
      "inputs": [
        {
          "internalType": "uint256",
          "name": "length",
          "type": "uint256"
        }
      ],
      "name": "ECDSAInvalidSignatureLength",
      "type": "error"
    },
    {
      "inputs": [
        {
          "internalType": "bytes32",
          "name": "s",
          "type": "bytes32"
        }
      ],
      "name": "ECDSAInvalidSignatureS",
      "type": "error"
    },
    {
      "inputs": [],
      "name": "InvalidShortString",
      "type": "error"
    },
    {
      "inputs": [
        {
          "internalType": "string",
          "name": "str",
          "type": "string"
        }
      ],
      "name": "StringTooLong",
      "type": "error"
    },
    {
      "anonymous": false,
      "inputs": [],
      "name": "EIP712DomainChanged",
      "type": "event"
    },
    {
      "anonymous": false,
      "inputs": [
        {
          "indexed": false,
          "internalType": "uint256",
          "name": "orderId",
          "type": "uint256"
        },
        {
          "indexed": false,
          "internalType": "address",
          "name": "buyer",
          "type": "address"
        },
        {
          "indexed": false,
          "internalType": "bytes32",
          "name": "dataHash",
          "type": "bytes32"
        }
      ],
      "name": "OrderPlaced",
      "type": "event"
    },
    {
      "anonymous": false,
      "inputs": [
        {
          "indexed": false,
          "internalType": "uint256",
          "name": "productId",
          "type": "uint256"
        },
        {
          "indexed": false,
          "internalType": "address",
          "name": "seller",
          "type": "address"
        }
      ],
      "name": "ProductAdded",
      "type": "event"
    },
    {
      "anonymous": false,
      "inputs": [
        {
          "indexed": true,
          "internalType": "bytes32",
          "name": "role",
          "type": "bytes32"
        },
        {
          "indexed": true,
          "internalType": "bytes32",
          "name": "previousAdminRole",
          "type": "bytes32"
        },
        {
          "indexed": true,
          "internalType": "bytes32",
          "name": "newAdminRole",
          "type": "bytes32"
        }
      ],
      "name": "RoleAdminChanged",
      "type": "event"
    },
    {
      "anonymous": false,
      "inputs": [
        {
          "indexed": true,
          "internalType": "bytes32",
          "name": "role",
          "type": "bytes32"
        },
        {
          "indexed": true,
          "internalType": "address",
          "name": "account",
          "type": "address"
        },
        {
          "indexed": true,
          "internalType": "address",
          "name": "sender",
          "type": "address"
        }
      ],
      "name": "RoleGranted",
      "type": "event"
    },
    {
      "anonymous": false,
      "inputs": [
        {
          "indexed": true,
          "internalType": "bytes32",
          "name": "role",
          "type": "bytes32"
        },
        {
          "indexed": true,
          "internalType": "address",
          "name": "account",
          "type": "address"
        },
        {
          "indexed": true,
          "internalType": "address",
          "name": "sender",
          "type": "address"
        }
      ],
      "name": "RoleRevoked",
      "type": "event"
    },
    {
      "inputs": [],
      "name": "BUYER_ROLE",
      "outputs": [
        {
          "internalType": "bytes32",
          "name": "",
          "type": "bytes32"
        }
      ],
      "stateMutability": "view",
      "type": "function"
    },
    {
      "inputs": [],
      "name": "DEFAULT_ADMIN_ROLE",
      "outputs": [
        {
          "internalType": "bytes32",
          "name": "",
          "type": "bytes32"
        }
      ],
      "stateMutability": "view",
      "type": "function"
    },
    {
      "inputs": [],
      "name": "SELLER_ROLE",
      "outputs": [
        {
          "internalType": "bytes32",
          "name": "",
          "type": "bytes32"
        }
      ],
      "stateMutability": "view",
      "type": "function"
    },
    {
      "inputs": [
        {
          "internalType": "string",
          "name": "name",
          "type": "string"
        },
        {
          "internalType": "uint256",
          "name": "price",
          "type": "uint256"
        },
        {
          "internalType": "string",
          "name": "encryptedDetails",
          "type": "string"
        },
        {
          "internalType": "string",
          "name": "iv",
          "type": "string"
        },
        {
          "internalType": "bytes",
          "name": "encryptedKey",
          "type": "bytes"
        }
      ],
      "name": "addProduct",
      "outputs": [],
      "stateMutability": "nonpayable",
      "type": "function"
    },
    {
      "inputs": [],
      "name": "eip712Domain",
      "outputs": [
        {
          "internalType": "bytes1",
          "name": "fields",
          "type": "bytes1"
        },
        {
          "internalType": "string",
          "name": "name",
          "type": "string"
        },
        {
          "internalType": "string",
          "name": "version",
          "type": "string"
        },
        {
          "internalType": "uint256",
          "name": "chainId",
          "type": "uint256"
        },
        {
          "internalType": "address",
          "name": "verifyingContract",
          "type": "address"
        },
        {
          "internalType": "bytes32",
          "name": "salt",
          "type": "bytes32"
        },
        {
          "internalType": "uint256[]",
          "name": "extensions",
          "type": "uint256[]"
        }
      ],
      "stateMutability": "view",
      "type": "function"
    },
    {
      "inputs": [
        {
          "internalType": "uint256",
          "name": "orderId",
          "type": "uint256"
        }
      ],
      "name": "fulfillOrder",
      "outputs": [],
      "stateMutability": "nonpayable",
      "type": "function"
    },
    {
      "inputs": [],
      "name": "getProductsCount",
      "outputs": [
        {
          "internalType": "uint256",
          "name": "",
          "type": "uint256"
        }
      ],
      "stateMutability": "view",
      "type": "function"
    },
    {
      "inputs": [
        {
          "internalType": "bytes32",
          "name": "role",
          "type": "bytes32"
        }
      ],
      "name": "getRoleAdmin",
      "outputs": [
        {
          "internalType": "bytes32",
          "name": "",
          "type": "bytes32"
        }
      ],
      "stateMutability": "view",
      "type": "function"
    },
    {
      "inputs": [
        {
          "internalType": "address",
          "name": "user",
          "type": "address"
        }
      ],
      "name": "grantBuyerRole",
      "outputs": [],
      "stateMutability": "nonpayable",
      "type": "function"
    },
    {
      "inputs": [
        {
          "internalType": "bytes32",
          "name": "role",
          "type": "bytes32"
        },
        {
          "internalType": "address",
          "name": "account",
          "type": "address"
        }
      ],
      "name": "grantRole",
      "outputs": [],
      "stateMutability": "nonpayable",
      "type": "function"
    },
    {
      "inputs": [
        {
          "internalType": "bytes32",
          "name": "role",
          "type": "bytes32"
        },
        {
          "internalType": "address",
          "name": "account",
          "type": "address"
        }
      ],
      "name": "hasRole",
      "outputs": [
        {
          "internalType": "bool",
          "name": "",
          "type": "bool"
        }
      ],
      "stateMutability": "view",
      "type": "function"
    },
    {
      "inputs": [
        {
          "internalType": "address",
          "name": "",
          "type": "address"
        }
      ],
      "name": "nonces",
      "outputs": [
        {
          "internalType": "uint256",
          "name": "",
          "type": "uint256"
        }
      ],
      "stateMutability": "view",
      "type": "function"
    },
    {
      "inputs": [
        {
          "internalType": "uint256",
          "name": "",
          "type": "uint256"
        }
      ],
      "name": "orders",
      "outputs": [
        {
          "internalType": "uint256",
          "name": "id",
          "type": "uint256"
        },
        {
          "internalType": "uint256",
          "name": "productId",
          "type": "uint256"
        },
        {
          "internalType": "address",
          "name": "buyer",
          "type": "address"
        },
        {
          "internalType": "uint256",
          "name": "timestamp",
          "type": "uint256"
        },
        {
          "internalType": "bool",
          "name": "fulfilled",
          "type": "bool"
        },
        {
          "internalType": "string",
          "name": "encryptedData",
          "type": "string"
        },
        {
          "internalType": "string",
          "name": "iv",
          "type": "string"
        },
        {
          "internalType": "bytes32",
          "name": "dataHash",
          "type": "bytes32"
        },
        {
          "internalType": "bytes",
          "name": "encryptedKey",
          "type": "bytes"
        }
      ],
      "stateMutability": "view",
      "type": "function"
    },
    {
      "inputs": [
        {
          "internalType": "uint256",
          "name": "productId",
          "type": "uint256"
        },
        {
          "internalType": "string",
          "name": "encryptedData",
          "type": "string"
        },
        {
          "internalType": "string",
          "name": "iv",
          "type": "string"
        },
        {
          "internalType": "bytes32",
          "name": "dataHash",
          "type": "bytes32"
        },
        {
          "internalType": "uint256",
          "name": "timestamp",
          "type": "uint256"
        },
        {
          "internalType": "bytes",
          "name": "encryptedKey",
          "type": "bytes"
        },
        {
          "internalType": "bytes",
          "name": "signature",
          "type": "bytes"
        }
      ],
      "name": "placeOrder",
      "outputs": [],
      "stateMutability": "nonpayable",
      "type": "function"
    },
    {
      "inputs": [
        {
          "internalType": "uint256",
          "name": "",
          "type": "uint256"
        }
      ],
      "name": "products",
      "outputs": [
        {
          "internalType": "uint256",
          "name": "id",
          "type": "uint256"
        },
        {
          "internalType": "string",
          "name": "name",
          "type": "string"
        },
        {
          "internalType": "uint256",
          "name": "price",
          "type": "uint256"
        },
        {
          "internalType": "address",
          "name": "seller",
          "type": "address"
        },
        {
          "internalType": "string",
          "name": "encryptedDetails",
          "type": "string"
        },
        {
          "internalType": "string",
          "name": "iv",
          "type": "string"
        },
        {
          "internalType": "bytes",
          "name": "encryptedKey",
          "type": "bytes"
        }
      ],
      "stateMutability": "view",
      "type": "function"
    },
    {
      "inputs": [
        {
          "internalType": "bytes32",
          "name": "role",
          "type": "bytes32"
        },
        {
          "internalType": "address",
          "name": "callerConfirmation",
          "type": "address"
        }
      ],
      "name": "renounceRole",
      "outputs": [],
      "stateMutability": "nonpayable",
      "type": "function"
    },
    {
      "inputs": [
        {
          "internalType": "bytes32",
          "name": "role",
          "type": "bytes32"
        },
        {
          "internalType": "address",
          "name": "account",
          "type": "address"
        }
      ],
      "name": "revokeRole",
      "outputs": [],
      "stateMutability": "nonpayable",
      "type": "function"
    },
    {
      "inputs": [
        {
          "internalType": "bytes4",
          "name": "interfaceId",
          "type": "bytes4"
        }
      ],
      "name": "supportsInterface",
      "outputs": [
        {
          "internalType": "bool",
          "name": "",
          "type": "bool"
        }
      ],
      "stateMutability": "view",
      "type": "function"
    },
    {
      "inputs": [
        {
          "internalType": "address",
          "name": "signer",
          "type": "address"
        },
        {
          "internalType": "uint256",
          "name": "productId",
          "type": "uint256"
        },
        {
          "internalType": "bytes32",
          "name": "dataHash",
          "type": "bytes32"
        },
        {
          "internalType": "uint256",
          "name": "timestamp",
          "type": "uint256"
        },
        {
          "internalType": "uint256",
          "name": "nonce",
          "type": "uint256"
        },
        {
          "internalType": "bytes",
          "name": "signature",
          "type": "bytes"
        }
      ],
      "name": "verifySignature",
      "outputs": [
        {
          "internalType": "bool",
          "name": "",
          "type": "bool"
        }
      ],
      "stateMutability": "view",
      "type": "function"
    }
  ],
  "bytecode": "0x61016060405234801561001157600080fd5b506040518060400160405280601081526020017f45636f6d6d6572636550726976616379000000000000000000000000000000008152506040518060400160405280600181526020017f310000000000000000000000000000000000000000000000000000000000000081525061009260018361017260201b90919060201c565b61012081815250506100ae60028261017260201b90919060201c565b6101408181525050818051906020012060e08181525050808051906020012061010081815250504660a081815250506100eb6101c260201b60201c565b608081815250503073ffffffffffffffffffffffffffffffffffffffff1660c08173ffffffffffffffffffffffffffffffffffffffff1681525050505061013b6000801b3361021d60201b60201c565b5061016c7fe27592a68a79c541972a95a186227e8435146610cb2d3eb8f8589c9a507d61b23361021d60201b60201c565b5061091a565b60006020835110156101945761018d8361031a60201b60201c565b90506101bc565b826101a48361038260201b60201c565b60000190816101b3919061064e565b5060ff60001b90505b92915050565b60007f8b73c3c69bb8fe3d512ecc4cf759cc79239f7b179b0ffacaa9a75d522b39400f60e051610100514630604051602001610202959493929190610789565b60405160208183030381529060405280519060200120905090565b600061022f838361038c60201b60201c565b61030f57600160008085815260200190815260200160002060000160008473ffffffffffffffffffffffffffffffffffffffff1673ffffffffffffffffffffffffffffffffffffffff16815260200190815260200160002060006101000a81548160ff0219169083151502179055506102ac6103f660201b60201c565b73ffffffffffffffffffffffffffffffffffffffff168273ffffffffffffffffffffffffffffffffffffffff16847f2f8788117e7eff1d82e926ec794901d17c78024a50270940304540a733656f0d60405160405180910390a460019050610314565b600090505b92915050565b600080829050601f8151111561036757826040517f305a27a900000000000000000000000000000000000000000000000000000000815260040161035e9190610861565b60405180910390fd5b805181610373906108b3565b60001c1760001b915050919050565b6000819050919050565b600080600084815260200190815260200160002060000160008373ffffffffffffffffffffffffffffffffffffffff1673ffffffffffffffffffffffffffffffffffffffff16815260200190815260200160002060009054906101000a900460ff16905092915050565b600033905090565b600081519050919050565b7f4e487b7100000000000000000000000000000000000000000000000000000000600052604160045260246000fd5b7f4e487b7100000000000000000000000000000000000000000000000000000000600052602260045260246000fd5b6000600282049050600182168061047f57607f821691505b60208210810361049257610491610438565b5b50919050565b60008190508160005260206000209050919050565b60006020601f8301049050919050565b600082821b905092915050565b6000600883026104fa7fffffffffffffffffffffffffffffffffffffffffffffffffffffffffffffffff826104bd565b61050486836104bd565b95508019841693508086168417925050509392505050565b6000819050919050565b6000819050919050565b600061054b6105466105418461051c565b610526565b61051c565b9050919050565b6000819050919050565b61056583610530565b61057961057182610552565b8484546104ca565b825550505050565b600090565b61058e610581565b61059981848461055c565b505050565b5b818110156105bd576105b2600082610586565b60018101905061059f565b5050565b601f821115610602576105d381610498565b6105dc846104ad565b810160208510156105eb578190505b6105ff6105f7856104ad565b83018261059e565b50505b505050565b600082821c905092915050565b600061062560001984600802610607565b1980831691505092915050565b600061063e8383610614565b9150826002028217905092915050565b610657826103fe565b67ffffffffffffffff8111156106705761066f610409565b5b61067a8254610467565b6106858282856105c1565b600060209050601f8311600181146106b857600084156106a6578287015190505b6106b08582610632565b865550610718565b601f1984166106c686610498565b60005b828110156106ee578489015182556001820191506020850194506020810190506106c9565b8683101561070b5784890151610707601f891682610614565b8355505b6001600288020188555050505b505050505050565b6000819050919050565b61073381610720565b82525050565b6107428161051c565b82525050565b600073ffffffffffffffffffffffffffffffffffffffff82169050919050565b600061077382610748565b9050919050565b61078381610768565b82525050565b600060a08201905061079e600083018861072a565b6107ab602083018761072a565b6107b8604083018661072a565b6107c56060830185610739565b6107d2608083018461077a565b9695505050505050565b600082825260208201905092915050565b60005b8381101561080b5780820151818401526020810190506107f0565b60008484015250505050565b6000601f19601f8301169050919050565b6000610833826103fe565b61083d81856107dc565b935061084d8185602086016107ed565b61085681610817565b840191505092915050565b6000602082019050818103600083015261087b8184610828565b905092915050565b600081519050919050565b6000819050602082019050919050565b60006108aa8251610720565b80915050919050565b60006108be82610883565b826108c88461088e565b90506108d38161089e565b925060208210156109135761090e7fffffffffffffffffffffffffffffffffffffffffffffffffffffffffffffffff836020036008026104bd565b831692505b5050919050565b60805160a05160c05160e0516101005161012051610140516130e461097460003960006115e3015260006115a801526000611ace01526000611aad01526000611760015260006117b6015260006117df01526130e46000f3fe608060405234801561001057600080fd5b50600436106101215760003560e01c80637acc0b20116100ad578063a217fddf11610071578063a217fddf14610324578063a85c38ef14610342578063b4a5f88b1461037a578063d547741f146103aa578063dbe4613d146103c657610121565b80637acc0b201461024e5780637ecebe001461028457806384b0196e146102b45780638b3fb85e146102d857806391d14854146102f457610121565b806336568abe116100f457806336568abe146101be5780635786fd40146101da5780635d22360e146101f85780636311e830146102145780637a01a1da1461023057610121565b806301ffc9a7146101265780631107f10d14610156578063248a9ca3146101725780632f2ff15d146101a2575b600080fd5b610140600480360381019061013b9190611cce565b6103e4565b60405161014d9190611d16565b60405180910390f35b610170600480360381019061016b9190611d8f565b61045e565b005b61018c60048036038101906101879190611df2565b61049a565b6040516101999190611e2e565b60405180910390f35b6101bc60048036038101906101b79190611e49565b6104b9565b005b6101d860048036038101906101d39190611e49565b6104db565b005b6101e2610556565b6040516101ef9190611ea2565b60405180910390f35b610212600480360381019061020d91906120d0565b610560565b005b61022e600480360381019061022991906121bb565b6106fb565b005b610238610815565b6040516102459190611e2e565b60405180910390f35b610268600480360381019061026391906121bb565b610839565b60405161027b97969594939291906122cb565b60405180910390f35b61029e60048036038101906102999190611d8f565b610abb565b6040516102ab9190611ea2565b60405180910390f35b6102bc610ad3565b6040516102cf979695949392919061244f565b60405180910390f35b6102f260048036038101906102ed91906124d3565b610b7d565b005b61030e60048036038101906103099190611e49565b610f3a565b60405161031b9190611d16565b60405180910390f35b61032c610fa4565b6040516103399190611e2e565b60405180910390f35b61035c600480360381019061035791906121bb565b610fab565b604051610371999897969594939291906125e5565b60405180910390f35b610394600480360381019061038f9190612687565b6111be565b6040516103a19190611d16565b60405180910390f35b6103c460048036038101906103bf9190611e49565b6112f0565b005b6103ce611312565b6040516103db9190611e2e565b60405180910390f35b60007f7965db0b000000000000000000000000000000000000000000000000000000007bffffffffffffffffffffffffffffffffffffffffffffffffffffffff1916827bffffffffffffffffffffffffffffffffffffffffffffffffffffffff19161480610457575061045682611336565b5b9050919050565b6000801b61046b816113a0565b6104957feeccd0cdb44235955432f589255f62b95683f64165b40b022d338b8009cf79b6836113b4565b505050565b6000806000838152602001908152602001600020600101549050919050565b6104c28261049a565b6104cb816113a0565b6104d583836113b4565b50505050565b6104e36114a5565b73ffffffffffffffffffffffffffffffffffffffff168173ffffffffffffffffffffffffffffffffffffffff1614610547576040517f6697b23200000000000000000000000000000000000000000000000000000000815260040160405180910390fd5b61055182826114ad565b505050565b6000600354905090565b7fe27592a68a79c541972a95a186227e8435146610cb2d3eb8f8589c9a507d61b261058a816113a0565b6003600081548092919061059d9061275f565b91905055506040518060e0016040528060035481526020018781526020018681526020013373ffffffffffffffffffffffffffffffffffffffff1681526020018581526020018481526020018381525060056000600354815260200190815260200160002060008201518160000155602082015181600101908161062191906129b3565b506040820151816002015560608201518160030160006101000a81548173ffffffffffffffffffffffffffffffffffffffff021916908373ffffffffffffffffffffffffffffffffffffffff160217905550608082015181600401908161068891906129b3565b5060a082015181600501908161069e91906129b3565b5060c08201518160060190816106b49190612ae0565b509050507f61394ce83505fd053362beef6b6476dc5cdd4e4dd515dd026ee6ed7f4d473cd0600354336040516106eb929190612bb2565b60405180910390a1505050505050565b7fe27592a68a79c541972a95a186227e8435146610cb2d3eb8f8589c9a507d61b2610725816113a0565b600060066000848152602001908152602001600020600001540361077e576040517f08c379a000000000000000000000000000000000000000000000000000000000815260040161077590612c27565b60405180910390fd5b6006600083815260200190815260200160002060040160009054906101000a900460ff16156107e2576040517f08c379a00000000000000000000000000000000000000000000000000000000081526004016107d990612c93565b60405180910390fd5b60016006600084815260200190815260200160002060040160006101000a81548160ff0219169083151502179055505050565b7feeccd0cdb44235955432f589255f62b95683f64165b40b022d338b8009cf79b681565b6005602052806000526040600020600091509050806000015490806001018054610862906127d6565b80601f016020809104026020016040519081016040528092919081815260200182805461088e906127d6565b80156108db5780601f106108b0576101008083540402835291602001916108db565b820191906000526020600020905b8154815290600101906020018083116108be57829003601f168201915b5050505050908060020154908060030160009054906101000a900473ffffffffffffffffffffffffffffffffffffffff169080600401805461091c906127d6565b80601f0160208091040260200160405190810160405280929190818152602001828054610948906127d6565b80156109955780601f1061096a57610100808354040283529160200191610995565b820191906000526020600020905b81548152906001019060200180831161097857829003601f168201915b5050505050908060050180546109aa906127d6565b80601f01602080910402602001604051908101604052809291908181526020018280546109d6906127d6565b8015610a235780601f106109f857610100808354040283529160200191610a23565b820191906000526020600020905b815481529060010190602001808311610a0657829003601f168201915b505050505090806006018054610a38906127d6565b80601f0160208091040260200160405190810160405280929190818152602001828054610a64906127d6565b8015610ab15780601f10610a8657610100808354040283529160200191610ab1565b820191906000526020600020905b815481529060010190602001808311610a9457829003601f168201915b5050505050905087565b60076020528060005260406000206000915090505481565b600060608060008060006060610ae761159f565b610aef6115da565b46306000801b600067ffffffffffffffff811115610b1057610b0f611ed8565b5b604051908082528060200260200182016040528015610b3e5781602001602082028036833780820191505090505b507f0f00000000000000000000000000000000000000000000000000000000000000959493929190965096509650965096509650965090919293949596565b6000600560008981526020019081526020016000206000015403610bd6576040517f08c379a0000000000000000000000000000000000000000000000000000000008152600401610bcd90612cff565b60405180910390fd5b8585604051602001610be9929190612d5b565b604051602081830303815290604052805190602001208414610c40576040517f08c379a0000000000000000000000000000000000000000000000000000000008152600401610c3790612dcb565b60405180910390fd5b3073ffffffffffffffffffffffffffffffffffffffff1663b4a5f88b33898787600760003373ffffffffffffffffffffffffffffffffffffffff1673ffffffffffffffffffffffffffffffffffffffff16815260200190815260200160002054876040518763ffffffff1660e01b8152600401610cc296959493929190612deb565b602060405180830381865afa158015610cdf573d6000803e3d6000fd5b505050506040513d601f19601f82011682018060405250810190610d039190612e7f565b610d42576040517f08c379a0000000000000000000000000000000000000000000000000000000008152600401610d3990612ef8565b60405180910390fd5b600760003373ffffffffffffffffffffffffffffffffffffffff1673ffffffffffffffffffffffffffffffffffffffff1681526020019081526020016000206000815480929190610d929061275f565b919050555060046000815480929190610daa9061275f565b919050555060405180610120016040528060045481526020018881526020013373ffffffffffffffffffffffffffffffffffffffff16815260200142815260200160001515815260200187815260200186815260200185815260200183815250600660006004548152602001908152602001600020600082015181600001556020820151816001015560408201518160020160006101000a81548173ffffffffffffffffffffffffffffffffffffffff021916908373ffffffffffffffffffffffffffffffffffffffff1602179055506060820151816003015560808201518160040160006101000a81548160ff02191690831515021790555060a0820151816005019081610eb991906129b3565b5060c0820151816006019081610ecf91906129b3565b5060e08201518160070155610100820151816008019081610ef09190612ae0565b509050507ff9349114914f6205a7a0638d82beeaf3e22e7df83154026ba2a4e2b9d188baf56004543386604051610f2993929190612f18565b60405180910390a150505050505050565b600080600084815260200190815260200160002060000160008373ffffffffffffffffffffffffffffffffffffffff1673ffffffffffffffffffffffffffffffffffffffff16815260200190815260200160002060009054906101000a900460ff16905092915050565b6000801b81565b60066020528060005260406000206000915090508060000154908060010154908060020160009054906101000a900473ffffffffffffffffffffffffffffffffffffffff16908060030154908060040160009054906101000a900460ff1690806005018054611019906127d6565b80601f0160208091040260200160405190810160405280929190818152602001828054611045906127d6565b80156110925780601f1061106757610100808354040283529160200191611092565b820191906000526020600020905b81548152906001019060200180831161107557829003601f168201915b5050505050908060060180546110a7906127d6565b80601f01602080910402602001604051908101604052809291908181526020018280546110d3906127d6565b80156111205780601f106110f557610100808354040283529160200191611120565b820191906000526020600020905b81548152906001019060200180831161110357829003601f168201915b50505050509080600701549080600801805461113b906127d6565b80601f0160208091040260200160405190810160405280929190818152602001828054611167906127d6565b80156111b45780601f10611189576101008083540402835291602001916111b4565b820191906000526020600020905b81548152906001019060200180831161119757829003601f168201915b5050505050905089565b60006111ea7feeccd0cdb44235955432f589255f62b95683f64165b40b022d338b8009cf79b688610f3a565b6111f757600090506112e6565b82600760008973ffffffffffffffffffffffffffffffffffffffff1673ffffffffffffffffffffffffffffffffffffffff168152602001908152602001600020541461124657600090506112e6565b600061129f7f32277960e69ab238c4df7daa857570214427adc984d29400f5be5541d714785988888888604051602001611284959493929190612f4f565b60405160208183030381529060405280519060200120611615565b90508773ffffffffffffffffffffffffffffffffffffffff166112cb848361162f90919063ffffffff16565b73ffffffffffffffffffffffffffffffffffffffff16149150505b9695505050505050565b6112f98261049a565b611302816113a0565b61130c83836114ad565b50505050565b7fe27592a68a79c541972a95a186227e8435146610cb2d3eb8f8589c9a507d61b281565b60007f01ffc9a7000000000000000000000000000000000000000000000000000000007bffffffffffffffffffffffffffffffffffffffffffffffffffffffff1916827bffffffffffffffffffffffffffffffffffffffffffffffffffffffff1916149050919050565b6113b1816113ac6114a5565b61165b565b50565b60006113c08383610f3a565b61149a57600160008085815260200190815260200160002060000160008473ffffffffffffffffffffffffffffffffffffffff1673ffffffffffffffffffffffffffffffffffffffff16815260200190815260200160002060006101000a81548160ff0219169083151502179055506114376114a5565b73ffffffffffffffffffffffffffffffffffffffff168273ffffffffffffffffffffffffffffffffffffffff16847f2f8788117e7eff1d82e926ec794901d17c78024a50270940304540a733656f0d60405160405180910390a46001905061149f565b600090505b92915050565b600033905090565b60006114b98383610f3a565b1561159457600080600085815260200190815260200160002060000160008473ffffffffffffffffffffffffffffffffffffffff1673ffffffffffffffffffffffffffffffffffffffff16815260200190815260200160002060006101000a81548160ff0219169083151502179055506115316114a5565b73ffffffffffffffffffffffffffffffffffffffff168273ffffffffffffffffffffffffffffffffffffffff16847ff6391f5c32d9c69d2a47ea670b442974b53935d1edc7fd64eb21e047a839171b60405160405180910390a460019050611599565b600090505b92915050565b60606115d560017f00000000000000000000000000000000000000000000000000000000000000006116ac90919063ffffffff16565b905090565b606061161060027f00000000000000000000000000000000000000000000000000000000000000006116ac90919063ffffffff16565b905090565b600061162861162261175c565b83611813565b9050919050565b60008060008061163f8686611854565b92509250925061164f82826118b0565b82935050505092915050565b6116658282610f3a565b6116a85780826040517fe2517d3f00000000000000000000000000000000000000000000000000000000815260040161169f929190612fa2565b60405180910390fd5b5050565b606060ff60001b83146116c9576116c283611a14565b9050611756565b8180546116d5906127d6565b80601f0160208091040260200160405190810160405280929190818152602001828054611701906127d6565b801561174e5780601f106117235761010080835404028352916020019161174e565b820191906000526020600020905b81548152906001019060200180831161173157829003601f168201915b505050505090505b92915050565b60007f000000000000000000000000000000000000000000000000000000000000000073ffffffffffffffffffffffffffffffffffffffff163073ffffffffffffffffffffffffffffffffffffffff161480156117d857507f000000000000000000000000000000000000000000000000000000000000000046145b15611805577f00000000000000000000000000000000000000000000000000000000000000009050611810565b61180d611a88565b90505b90565b60006040517f190100000000000000000000000000000000000000000000000000000000000081528360028201528260228201526042812091505092915050565b600080600060418451036118995760008060006020870151925060408701519150606087015160001a905061188b88828585611b1e565b9550955095505050506118a9565b60006002855160001b9250925092505b9250925092565b600060038111156118c4576118c3612fcb565b5b8260038111156118d7576118d6612fcb565b5b0315611a1057600160038111156118f1576118f0612fcb565b5b82600381111561190457611903612fcb565b5b0361193b576040517ff645eedf00000000000000000000000000000000000000000000000000000000815260040160405180910390fd5b6002600381111561194f5761194e612fcb565b5b82600381111561196257611961612fcb565b5b036119a7578060001c6040517ffce698f700000000000000000000000000000000000000000000000000000000815260040161199e9190611ea2565b60405180910390fd5b6003808111156119ba576119b9612fcb565b5b8260038111156119cd576119cc612fcb565b5b03611a0f57806040517fd78bce0c000000000000000000000000000000000000000000000000000000008152600401611a069190611e2e565b60405180910390fd5b5b5050565b60606000611a2183611c12565b90506000602067ffffffffffffffff811115611a4057611a3f611ed8565b5b6040519080825280601f01601f191660200182016040528015611a725781602001600182028036833780820191505090505b5090508181528360208201528092505050919050565b60007f8b73c3c69bb8fe3d512ecc4cf759cc79239f7b179b0ffacaa9a75d522b39400f7f00000000000000000000000000000000000000000000000000000000000000007f00000000000000000000000000000000000000000000000000000000000000004630604051602001611b03959493929190612ffa565b60405160208183030381529060405280519060200120905090565b60008060007f7fffffffffffffffffffffffffffffff5d576e7357a4501ddfe92f46681b20a08460001c1115611b5e576000600385925092509250611c08565b600060018888888860405160008152602001604052604051611b839493929190613069565b6020604051602081039080840390855afa158015611ba5573d6000803e3d6000fd5b505050602060405103519050600073ffffffffffffffffffffffffffffffffffffffff168173ffffffffffffffffffffffffffffffffffffffff1603611bf957600060016000801b93509350935050611c08565b8060008060001b935093509350505b9450945094915050565b60008060ff8360001c169050601f811115611c59576040517fb3512b0c00000000000000000000000000000000000000000000000000000000815260040160405180910390fd5b80915050919050565b6000604051905090565b600080fd5b600080fd5b60007fffffffff0000000000000000000000000000000000000000000000000000000082169050919050565b611cab81611c76565b8114611cb657600080fd5b50565b600081359050611cc881611ca2565b92915050565b600060208284031215611ce457611ce3611c6c565b5b6000611cf284828501611cb9565b91505092915050565b60008115159050919050565b611d1081611cfb565b82525050565b6000602082019050611d2b6000830184611d07565b92915050565b600073ffffffffffffffffffffffffffffffffffffffff82169050919050565b6000611d5c82611d31565b9050919050565b611d6c81611d51565b8114611d7757600080fd5b50565b600081359050611d8981611d63565b92915050565b600060208284031215611da557611da4611c6c565b5b6000611db384828501611d7a565b91505092915050565b6000819050919050565b611dcf81611dbc565b8114611dda57600080fd5b50565b600081359050611dec81611dc6565b92915050565b600060208284031215611e0857611e07611c6c565b5b6000611e1684828501611ddd565b91505092915050565b611e2881611dbc565b82525050565b6000602082019050611e436000830184611e1f565b92915050565b60008060408385031215611e6057611e5f611c6c565b5b6000611e6e85828601611ddd565b9250506020611e7f85828601611d7a565b9150509250929050565b6000819050919050565b611e9c81611e89565b82525050565b6000602082019050611eb76000830184611e93565b92915050565b600080fd5b600080fd5b6000601f19601f8301169050919050565b7f4e487b7100000000000000000000000000000000000000000000000000000000600052604160045260246000fd5b611f1082611ec7565b810181811067ffffffffffffffff82111715611f2f57611f2e611ed8565b5b80604052505050565b6000611f42611c62565b9050611f4e8282611f07565b919050565b600067ffffffffffffffff821115611f6e57611f6d611ed8565b5b611f7782611ec7565b9050602081019050919050565b82818337600083830152505050565b6000611fa6611fa184611f53565b611f38565b905082815260208101848484011115611fc257611fc1611ec2565b5b611fcd848285611f84565b509392505050565b600082601f830112611fea57611fe9611ebd565b5b8135611ffa848260208601611f93565b91505092915050565b61200c81611e89565b811461201757600080fd5b50565b60008135905061202981612003565b92915050565b600067ffffffffffffffff82111561204a57612049611ed8565b5b61205382611ec7565b9050602081019050919050565b600061207361206e8461202f565b611f38565b90508281526020810184848401111561208f5761208e611ec2565b5b61209a848285611f84565b509392505050565b600082601f8301126120b7576120b6611ebd565b5b81356120c7848260208601612060565b91505092915050565b600080600080600060a086880312156120ec576120eb611c6c565b5b600086013567ffffffffffffffff81111561210a57612109611c71565b5b61211688828901611fd5565b95505060206121278882890161201a565b945050604086013567ffffffffffffffff81111561214857612147611c71565b5b61215488828901611fd5565b935050606086013567ffffffffffffffff81111561217557612174611c71565b5b61218188828901611fd5565b925050608086013567ffffffffffffffff8111156121a2576121a1611c71565b5b6121ae888289016120a2565b9150509295509295909350565b6000602082840312156121d1576121d0611c6c565b5b60006121df8482850161201a565b91505092915050565b600081519050919050565b600082825260208201905092915050565b60005b83811015612222578082015181840152602081019050612207565b60008484015250505050565b6000612239826121e8565b61224381856121f3565b9350612253818560208601612204565b61225c81611ec7565b840191505092915050565b61227081611d51565b82525050565b600081519050919050565b600082825260208201905092915050565b600061229d82612276565b6122a78185612281565b93506122b7818560208601612204565b6122c081611ec7565b840191505092915050565b600060e0820190506122e0600083018a611e93565b81810360208301526122f2818961222e565b90506123016040830188611e93565b61230e6060830187612267565b8181036080830152612320818661222e565b905081810360a0830152612334818561222e565b905081810360c08301526123488184612292565b905098975050505050505050565b60007fff0000000000000000000000000000000000000000000000000000000000000082169050919050565b61238b81612356565b82525050565b600081519050919050565b600082825260208201905092915050565b6000819050602082019050919050565b6123c681611e89565b82525050565b60006123d883836123bd565b60208301905092915050565b6000602082019050919050565b60006123fc82612391565b612406818561239c565b9350612411836123ad565b8060005b8381101561244257815161242988826123cc565b9750612434836123e4565b925050600181019050612415565b5085935050505092915050565b600060e082019050612464600083018a612382565b8181036020830152612476818961222e565b9050818103604083015261248a818861222e565b90506124996060830187611e93565b6124a66080830186612267565b6124b360a0830185611e1f565b81810360c08301526124c581846123f1565b905098975050505050505050565b600080600080600080600060e0888a0312156124f2576124f1611c6c565b5b60006125008a828b0161201a565b975050602088013567ffffffffffffffff81111561252157612520611c71565b5b61252d8a828b01611fd5565b965050604088013567ffffffffffffffff81111561254e5761254d611c71565b5b61255a8a828b01611fd5565b955050606061256b8a828b01611ddd565b945050608061257c8a828b0161201a565b93505060a088013567ffffffffffffffff81111561259d5761259c611c71565b5b6125a98a828b016120a2565b92505060c088013567ffffffffffffffff8111156125ca576125c9611c71565b5b6125d68a828b016120a2565b91505092959891949750929550565b6000610120820190506125fb600083018c611e93565b612608602083018b611e93565b612615604083018a612267565b6126226060830189611e93565b61262f6080830188611d07565b81810360a0830152612641818761222e565b905081810360c0830152612655818661222e565b905061266460e0830185611e1f565b8181036101008301526126778184612292565b90509a9950505050505050505050565b60008060008060008060c087890312156126a4576126a3611c6c565b5b60006126b289828a01611d7a565b96505060206126c389828a0161201a565b95505060406126d489828a01611ddd565b94505060606126e589828a0161201a565b93505060806126f689828a0161201a565b92505060a087013567ffffffffffffffff81111561271757612716611c71565b5b61272389828a016120a2565b9150509295509295509295565b7f4e487b7100000000000000000000000000000000000000000000000000000000600052601160045260246000fd5b600061276a82611e89565b91507fffffffffffffffffffffffffffffffffffffffffffffffffffffffffffffffff820361279c5761279b612730565b5b600182019050919050565b7f4e487b7100000000000000000000000000000000000000000000000000000000600052602260045260246000fd5b600060028204905060018216806127ee57607f821691505b602082108103612801576128006127a7565b5b50919050565b60008190508160005260206000209050919050565b60006020601f8301049050919050565b600082821b905092915050565b6000600883026128697fffffffffffffffffffffffffffffffffffffffffffffffffffffffffffffffff8261282c565b612873868361282c565b95508019841693508086168417925050509392505050565b6000819050919050565b60006128b06128ab6128a684611e89565b61288b565b611e89565b9050919050565b6000819050919050565b6128ca83612895565b6128de6128d6826128b7565b848454612839565b825550505050565b600090565b6128f36128e6565b6128fe8184846128c1565b505050565b5b81811015612922576129176000826128eb565b600181019050612904565b5050565b601f8211156129675761293881612807565b6129418461281c565b81016020851015612950578190505b61296461295c8561281c565b830182612903565b50505b505050565b600082821c905092915050565b600061298a6000198460080261296c565b1980831691505092915050565b60006129a38383612979565b9150826002028217905092915050565b6129bc826121e8565b67ffffffffffffffff8111156129d5576129d4611ed8565b5b6129df82546127d6565b6129ea828285612926565b600060209050601f831160018114612a1d5760008415612a0b578287015190505b612a158582612997565b865550612a7d565b601f198416612a2b86612807565b60005b82811015612a5357848901518255600182019150602085019450602081019050612a2e565b86831015612a705784890151612a6c601f891682612979565b8355505b6001600288020188555050505b505050505050565b60008190508160005260206000209050919050565b601f821115612adb57612aac81612a85565b612ab58461281c565b81016020851015612ac4578190505b612ad8612ad08561281c565b830182612903565b50505b505050565b612ae982612276565b67ffffffffffffffff811115612b0257612b01611ed8565b5b612b0c82546127d6565b612b17828285612a9a565b600060209050601f831160018114612b4a5760008415612b38578287015190505b612b428582612997565b865550612baa565b601f198416612b5886612a85565b60005b82811015612b8057848901518255600182019150602085019450602081019050612b5b565b86831015612b9d5784890151612b99601f891682612979565b8355505b6001600288020188555050505b505050505050565b6000604082019050612bc76000830185611e93565b612bd46020830184612267565b9392505050565b7f496e76616c6964206f7264657200000000000000000000000000000000000000600082015250565b6000612c11600d836121f3565b9150612c1c82612bdb565b602082019050919050565b60006020820190508181036000830152612c4081612c04565b9050919050565b7f416c72656164792066756c66696c6c6564000000000000000000000000000000600082015250565b6000612c7d6011836121f3565b9150612c8882612c47565b602082019050919050565b60006020820190508181036000830152612cac81612c70565b9050919050565b7f496e76616c69642070726f647563740000000000000000000000000000000000600082015250565b6000612ce9600f836121f3565b9150612cf482612cb3565b602082019050919050565b60006020820190508181036000830152612d1881612cdc565b9050919050565b600081905092915050565b6000612d35826121e8565b612d3f8185612d1f565b9350612d4f818560208601612204565b80840191505092915050565b6000612d678285612d2a565b9150612d738284612d2a565b91508190509392505050565b7f446174612068617368206d69736d617463680000000000000000000000000000600082015250565b6000612db56012836121f3565b9150612dc082612d7f565b602082019050919050565b60006020820190508181036000830152612de481612da8565b9050919050565b600060c082019050612e006000830189612267565b612e0d6020830188611e93565b612e1a6040830187611e1f565b612e276060830186611e93565b612e346080830185611e93565b81810360a0830152612e468184612292565b9050979650505050505050565b612e5c81611cfb565b8114612e6757600080fd5b50565b600081519050612e7981612e53565b92915050565b600060208284031215612e9557612e94611c6c565b5b6000612ea384828501612e6a565b91505092915050565b7f496e76616c6964207369676e6174757265000000000000000000000000000000600082015250565b6000612ee26011836121f3565b9150612eed82612eac565b602082019050919050565b60006020820190508181036000830152612f1181612ed5565b9050919050565b6000606082019050612f2d6000830186611e93565b612f3a6020830185612267565b612f476040830184611e1f565b949350505050565b600060a082019050612f646000830188611e1f565b612f716020830187611e93565b612f7e6040830186611e1f565b612f8b6060830185611e93565b612f986080830184611e93565b9695505050505050565b6000604082019050612fb76000830185612267565b612fc46020830184611e1f565b9392505050565b7f4e487b7100000000000000000000000000000000000000000000000000000000600052602160045260246000fd5b600060a08201905061300f6000830188611e1f565b61301c6020830187611e1f565b6130296040830186611e1f565b6130366060830185611e93565b6130436080830184612267565b9695505050505050565b600060ff82169050919050565b6130638161304d565b82525050565b600060808201905061307e6000830187611e1f565b61308b602083018661305a565b6130986040830185611e1f565b6130a56060830184611e1f565b9594505050505056fea26469706673582212206cebecf509c0543c607073ce8932c971f8d0fe2fecd965b915e6ff0d62471e9864736f6c634300081c0033",
  "linkReferences": {},
  "deployedLinkReferences": {}
}